:10000000200800201D100000751000007510000071
:100010007510000075100000751000000000000051
:10002000000000000000000000000000751000004B
:100030007510000000000000751000007510000031
:10004000751000007510000075100000751000009C
:10005000751000007510000075100000751000008C
:10006000751000007510000075100000751000007C
:10007000751000007510000075100000751000006C
:10008000751000007510000075100000751000005C
:10009000751000007510000075100000751000004C
:1000A000751000007510000075100000751000003C
:1000B000751000007510000075100000751000002C
:1000C000751000007510000075100000751000001C
:1000D000751000007510000075100000751000000C
:1000E0007510000075100000000000007510000081
:1000F00075100000751000007510000075100000EC
:1001000075100000751000007510000075100000DB
:1001100000000000000000007510000075100000D5
:1001200075100000751000007510000075100000BB
:1001300075100000751000007510000075100000AB
:1001400000000000000000000000000000000000AF
:10015000751000007510000075100000751000008B
:10016000000000000000000000000000000000008F
:10017000000000000000000000000000000000007F
:10018000000000000000000000000000000000006F
:10019000000000000000000000000000000000005F
:1001A000000000000000000000000000000000004F
:1001B000751000007510000075100000751000002B
:1001C000751000007510000075100000751000001B
:1001D000751000007510000075100000751000000B
:1001E00075100000751000007510000075100000FB
:1001F00075100000751000007510000075100000EB
:10020000751000007510000075100000000000005F
:1002100075100000751000007510000075100000CA
:1002200075100000751000007510000075100000BA
:1002300075100000751000007510000075100000AA
:10024000751000007510000075100000751000009A
:10025000751000007510000075100000751000008A
:1002600075100000751000007510000080B586B094
:1002700000AFF860B9601346FB71F86800F042F80F
:10028000FB79002B02D01B4B7B6101E01A4B7B6199
:100290007A6913469B0013449B001A46BB681344BB
:1002A000591E7A6913469B0013449B00B1FBF3F37C
:1002B000013B3B61FB680C331A463B691360FB68EA
:1002C00003F57C631B6803F00103002B0FD0BA68B1
:1002D0000A4B13440A4AA2FB0323DB0D013B3B619B
:1002E000FB680C331A463B6943F0800313601837F0
:1002F000BD4680BD801A0600A08601007F473701F9
:100300007DD0446980B483B000AF78607B682033CF
:100310001A467B6820331B6843F0100313600C37C8
:10032000BD465DF8047B704780B483B000AF786051
:100330000B46FB701346BB707B68FA785100BA78A5
:100340000A431A600C37BD465DF8047B704700BF56
:1003500080B483B000AF78607B6804331B6803F01F
:100360000103002B01D0012300E0002318460C37C5
:10037000BD465DF8047B704780B483B000AF786001
:1003800039607B6804331A463B6813600C37BD46FE
:100390005DF8047B704700BF80B483B000AF786025
:1003A0000B46FB707B6808331A46FB7813600C37EA
:1003B000BD465DF8047B704780B483B000AF7860C1
:1003C0007B6808331B6818460C37BD465DF8047B14
:1003D000704700BF80B500AF144800F0EFF9144833
:1003E00000F0C2F90A2000F0E5F91248E02100F01F
:1003F0007BFD1048202101220A2300F017FC0D4844
:10040000402101220A2300F011FC0A488021012228
:100410000A2300F00BFC084800F0A6F90A2000F0BF
:10042000C9F90648072100F075FD80BD400540026E
:10043000020800F000600040040800F000400240A4
:1004400080B500AF0E4800F08FF90E4800F08CF92F
:100450004FF0031000F0A0FD0B4800F09DFD0B488D
:10046000012100F083FD0948022100F069FD00F040
:100470009FFA0346064819460022FFF7F7FE80BDA3
:10048000032000F0030800F00304030000700040A4
:100490000030024080B582B000AF78600B46FB7040
:1004A0007B68DBB21B4819460022FFF73DFFFB7853
:1004B00018481946FFF770FF16480321FFF75CFF45
:1004C0004FF4FA7000F076F900BF1248FFF740FFD2
:1004D0000346002BF9D17B68DBB20E481946012296
:1004E000FFF722FF0B480721FFF746FF4FF4FA7092
:1004F00000F060F900BF0748FFF72AFF0346002B12
:10050000F9D10448FFF758FF034618460837BD469F
:1005100080BD00BF0030024080B483B000AF03460E
:10052000FB71FB791B09DBB21A46920013445B0096
:10053000DAB2FB7903F00F03DBB21344DBB21846E7
:100540000C37BD465DF8047B704700BF80B584B0B2
:1005500000AF0346FB71FB7968201946FFF79AFF4D
:100560000346FB73FB7B1846FFF7D6FF034618468E
:100570001037BD4680BD00BF80B500AFFFF72AFF32
:10058000FFF75EFF642000F015F9684800F012F9EB
:100590000020FFF7DBFF03461A46654B1A70012067
:1005A000FFF7D4FF03461A46624B1A700220FFF78A
:1005B000CDFF03461A46604B1A700420FFF7C6FFB2
:1005C00003461A465D4B1A700520FFF7BFFF03462E
:1005D0001A465B4B1A700620FFF7B8FF03461A460F
:1005E000584B1A7000F0E4F90246574BA3FB022364
:1005F000DA0813465B001344184600F0DBF8534852
:100600004B210022FFF790FE50480021FFF7C4FE67
:100610004E480321FFF7B0FE00BF4C48FFF798FE9D
:10062000034683F00103DBB2002BF6D100BF47483D
:10063000FFF78EFE0346002BF9D144484B210122DF
:10064000FFF772FE41480B21FFF796FE00BF3F48BF
:10065000FFF77EFE034683F00103DBB2002BF6D1E9
:1006600000BF3A48FFF774FE0346002BF9D1374824
:10067000FFF7A2FE03461B02354A136033480521EB
:10068000FFF77AFE00BF3148FFF762FE034683F0B2
:100690000103DBB2002BF6D100BF2C48FFF758FE58
:1006A0000346002BF9D12948FFF786FE0246294B65
:1006B0001A6026484B210022FFF736FE234801210D
:1006C000FFF76AFE21480321FFF756FE00BF1F48CF
:1006D000FFF73EFE034683F00103DBB2002BF6D1A9
:1006E0001B4B1A681B4B1B681344DB081A4A136028
:1006F000194B1B6803F48053184A1360164B1B6890
:10070000184600F0FDFD02460B46104619464FF014
:100710000002134B00F06AFE02460B4610461946D3
:1007200001F076F802460F4B1A602EE740420F00A8
:100730001800002016000020150000201A000020DC
:100740001400002017000020CDCCCCCC003002409B
:100750000400002008000020000000200C00002001
:100760000000B03F1000002080B483B000AF78607C
:100770007B6803F47F431A0A0D4B134403F0704265
:100780007B6803F47F43190A094B0B44C3F313033B
:100790005B011A437B68DBB29B00134343F0007399
:1007A0001A46012313600C37BD465DF8047B704781
:1007B00000E60F4001387FF4FDAF704780B586B08A
:1007C00000AF7860724B1B683B61724B1B68FB602B
:1007D0003B6943F400633B613B6923F480033B6165
:1007E000FB6843F40063FB60694A3B691360694A34
:1007F000FB6813603B6903F00103002B26D07B6884
:1008000003F00103002B21D17B6863F001033A69F7
:1008100013403B61604B4FF480721A605C4A3B6945
:1008200013604FF400237B6106E07B69013B7B6131
:100830007B69002B00D105E0584B1B6803F48073E3
:10084000002BF2D07B69002B00D19EE03B6923F4A2
:10085000FE633B617B6803F4FE633A6913433B61CB
:10086000FB6823F0004323F07003FB607A684C4B75
:100870001340FA681343FB607B6803F00803DB0056
:10088000FA681343FB60424A3B691360414AFB68C4
:1008900013603B6923F400533B617B6803F400530E
:1008A0003A6913433B61FB6823F40053FB607B68A8
:1008B00003F40053FA681343FB60374B40221A607D
:1008C000FB68002B06DA334AFB681360304A3B6949
:1008D000136005E02E4A3B6913602E4AFB681360E3
:1008E0003B6923F0F86323F001033B617A682D4BE9
:1008F00013403A6913433B61FB6823F0FC53FB60F0
:100900007B6803F0FC53FA681343FB607B6803F0D9
:100910008043002B0ED03B6943F480033B61FB68AE
:1009200023F48003FB607A681F4B1340FA6813437B
:10093000FB6003E0FB6823F08043FB607B6803F40B
:100940000063002B18D14FF400437B6109E0174B83
:100950001B6803F00103002B00D005E07B69013B1D
:100960007B617B69002BF2D13B6923F400633B611F
:10097000FB6823F40063FB60054A3B691360054A8A
:10098000FB6813601020FFF715FF1837BD4680BDC8
:1009900060E00F4070E00F4058E00F4050E00F4023
:1009A000300000800100C0070000404068E10F40B7
:1009B00080B487B000AF714B1B687B61704B1B68C4
:1009C000BB60BB68002B03DABB6803F0700302E076
:1009D0007B6903F03003202B17D0202B04D8002B89
:1009E00007D0102B0ED01BE0302B11D0702B13D062
:1009F00016E07B6903F4F8639B09624A52F82330DE
:100A00003B610FE0604B3B610CE0604B3B6109E0F8
:100A100047F230533B6105E04FF400433B6101E096
:100A20000023A5E04FF0FF33FB60BB68002B04DA26
:100A3000BB6803F40063002B07D0BB68002B55DBB9
:100A40007B6903F40063002B50D1514B1B687B6022
:100A5000504B1B683B603B6803F4F8531B0A01339F
:100A60003A6802F01F02013202FB03F35B003A69AD
:100A7000B2FBF3F33B617B68C3F309033A6902FB02
:100A800003F27968444B0B409B0A396901FB03F37D
:100A90009B0A13443B617B6943F480037B613F4BBA
:100AA0001B6803F47043B3F5804F16D0B3F5804F45
:100AB00006D8B3F5005F0AD0B3F5405F0AD015E061
:100AC000B3F5E04F0CD0B3F5104F0CD00EE0344B23
:100AD000FB600BE0334BFB6008E0334BFB6005E051
:100AE000324BFB6002E0324BFB6000BF7B6903F4DA
:100AF0008003002B35D0BB68002B29DABB6803F0DC
:100B00008043002B1AD0BB68002B04DABB6803F4C7
:100B10000063002B07D0BB68002B0FDB7B6903F45D
:100B20000063002B0AD13B695A00BB6803F0FE53F7
:100B30009B0D0133B2FBF3F33B6112E0BB6803F0A2
:100B4000FC53DB0D01333A69B2FBF3F33B6108E080
:100B50007B6903F0F063DB0D01333A69B2FBF3F319
:100B60003B61FA683B699A4201D2FB683B613B6991
:100B700018461C37BD465DF8047B704760E00F40A7
:100B800070E00F40B01800000024F40000093D00A0
:100B900060E10F4064E10F4000FC0F0010E00F40E7
:100BA00000B4C40480F0FA02005A620240787D0169
:100BB000002D310180B485B000AFF8600B467A603B
:100BC000FB72FB6803F5806319467B6803F0010341
:100BD000002B06D0FB6803F580631A68FB7A134389
:100BE00006E0FB6803F580631B68FA7AD243134082
:100BF0000B60FB6803F5846319467B6803F002030E
:100C0000002B06D0FB6803F584631A68FB7A134354
:100C100006E0FB6803F584631B68FA7AD24313404D
:100C20000B601437BD465DF8047B704780B487B015
:100C300000AFF8607A603B600B46FB720023FB75E7
:100C40002CE0FA7AFB7D42FA03F303F00103002B58
:100C500021D0FB6803F6C4731846FB6803F6C4731F
:100C60001B68FA7D5200032101FA02F2D2431340BD
:100C70000360FB6803F6C4731846FB6803F6C4738D
:100C80001A687B685B0903F00301FB7D5B0001FAD6
:100C900003F313430360FB7D0133FB75FB7D072BDF
:100CA000CFD9FB6803F5A06319467B6803F0010305
:100CB000002B06D0FB6803F5A0631A68FB7A134388
:100CC00006E0FB6803F5A0631B68FA7AD243134081
:100CD0000B60FB6803F2045319467B6803F00203C0
:100CE000002B06D0FB6803F204531A68FB7A134307
:100CF00006E0FB6803F204531B68FA7AD243134000
:100D00000B60FB6803F5A16319467B6803F00403DD
:100D1000002B06D0FB6803F5A1631A68FB7A134326
:100D200006E0FB6803F5A1631B68FA7AD24313401F
:100D30000B60FB6803F5A36319467B6803F00803A7
:100D4000002B06D0FB6803F5A3631A68FB7A1343F4
:100D500006E0FB6803F5A3631B68FA7AD2431340ED
:100D60000B60FB6803F23C5319467B6803F01003E9
:100D7000002B06D0FB6803F23C531A68FB7A13433E
:100D800006E0FB6803F23C531B68FA7AD243134037
:100D90000B60FB6803F20C5319463B6803F0010338
:100DA000002B06D0FB6803F20C531A68FB7A13433E
:100DB00006E0FB6803F20C531B68FA7AD243134037
:100DC0000B60FB6803F5A26319463B6803F002035E
:100DD000002B06D0FB6803F5A2631A68FB7A134365
:100DE00006E0FB6803F5A2631B68FA7AD24313405E
:100DF0000B60FB6803F2145319463B6803F00403CD
:100E0000002B06D0FB6803F214531A68FB7A1343D5
:100E100006E0FB6803F214531B68FA7AD2431340CE
:100E20000B60FB6803F21C5319463B6803F0080390
:100E3000002B06D0FB6803F21C531A68FB7A13439D
:100E400006E0FB6803F21C531B68FA7AD243134096
:100E50000B60FB6803F2445319463B6803F40073CC
:100E6000002B06D0FB6803F244531A68FB7A134345
:100E700006E0FB6803F244531B68FA7AD24313403E
:100E80000B60FB6803F5A86319463B6803F44073E5
:100E9000002B06D0FB6803F5A8631A68FB7A13439E
:100EA00006E0FB6803F5A8631B68FA7AD243134097
:100EB0000B60FB6803F5A56319463B68002B06D160
:100EC000FB6803F5A5631A68FB7A134306E0FB6829
:100ED00003F5A5631B68FA7AD24313400B601C37F5
:100EE000BD465DF8047B704780B582B000AF786086
:100EF0000B46FB70FB78786819460022FFF75AFE14
:100F0000FB787868194601220823FFF78FFE08371F
:100F1000BD4680BD80B582B000AF78600B46FB70E7
:100F2000FB787868194601220823FFF77FFEFB78DB
:100F3000786819460122FFF73DFE0837BD4680BD9F
:100F400080B582B000AF78600B46FB70FB787868A4
:100F500019460222FFF72EFEFB7878681946012217
:100F60000923FFF763FE0837BD4680BD80B582B018
:100F700000AF78600B46FB70FB7878681946022258
:100F8000FFF718FEFB787868194601220823FFF75F
:100F90004DFE0837BD4680BD80B485B000AF786097
:100FA0007B681B0CDBB2FB601A4B1B68FA680121E3
:100FB00001FA02F21340002B07D0FB685B000133FB
:100FC000154A52F82330FB6005E0FB685B00124ACB
:100FD00052F82330FB607B681B0ADBB2BB60FB6806
:100FE00003F22C531846FB6803F22C531B68BA68B3
:100FF0000F2101FA02F2D2431A407B6803F00F017D
:10100000BB6801FA03F3134303601437BD465DF870
:10101000047B70476CE00F40FC1B000080B582B081
:1010200000AF0F4B7B600F4B3B6007E03B681A1D26
:101030003A607A68111D796012681A603B680A4A42
:101040009342F3D309480A494FF000028842B8BFDF
:1010500040F8042BFADBFFF78FFA0837BD4680BD56
:101060008C1C000000000020000000200000002078
:101070001C00002080B400AFFEE700BF81F00041FB
:1010800002E000BF83F0004330B54FEA41044FEA6D
:10109000430594EA050F08BF90EA020F1FBF54EA08
:1010A000000C55EA020C7FEA645C7FEA655C00F0A4
:1010B000E2804FEA5454D4EB5555B8BF6D420CDD75
:1010C0002C4480EA020281EA030382EA000083EAF8
:1010D000010180EA020281EA0303362D88BF30BD98
:1010E00011F0004F4FEA01314FF4801C4CEA1131EE
:1010F00002D0404261EB410113F0004F4FEA03334D
:101100004CEA133302D0524263EB430394EA050FD7
:1011100000F0A780A4F10104D5F1200E0DDB02FA46
:101120000EFC22FA05F2801841F1000103FA0EF2DA
:10113000801843FA05F359410EE0A5F120050EF1A0
:10114000200E012A03FA0EFC28BF4CF0020C43FAD1
:1011500005F3C01851EBE37101F0004507D54FF0DE
:10116000000EDCF1000C7EEB00006EEB0101B1F52E
:10117000801F1BD3B1F5001F0CD349085FEA300074
:101180004FEA3C0C04F101044FEA445212F5800F7F
:1011900080F09A80BCF1004F08BF5FEA500C50F11C
:1011A000000041EB045141EA050130BD5FEA4C0CFF
:1011B000404141EB010111F4801FA4F10104E9D188
:1011C00091F0000F04BF01460020B1FA81F308BF7F
:1011D0002033A3F10B03B3F120020CDA0C3208DD4B
:1011E00002F1140CC2F10C0201FA0CF021FA02F126
:1011F0000CE002F11402D8BFC2F1200C01FA02F196
:1012000020FA0CFCDCBF41EA0C019040E41AA2BFBA
:1012100001EB0451294330BD6FEA04041F3C1CDA82
:101220000C340EDC04F11404C4F1200220FA04F0A2
:1012300001FA02F340EA030021FA04F345EA03014C
:1012400030BDC4F10C04C4F1200220FA02F001FA0E
:1012500004F340EA0300294630BD21FA04F0294690
:1012600030BD94F0000F83F4801306BF81F4801129
:101270000134013D4EE77FEA645C18BF7FEA655C9C
:1012800029D094EA050F08BF90EA020F05D054EA6E
:10129000000C04BF1946104630BD91EA030F1EBF73
:1012A0000021002030BD5FEA545C05D14000494177
:1012B00028BF41F0004130BD14F580043CBF01F56A
:1012C000801130BD01F0004545F0FE4141F4700150
:1012D0004FF0000030BD7FEA645C1ABF194610462B
:1012E0007FEA655C1CBF0B46024650EA013406BF2C
:1012F00052EA033591EA030F41F4002130BD00BFEB
:1013000090F0000F04BF0021704730B54FF48064A7
:1013100004F132044FF000054FF0000150E700BF28
:1013200090F0000F04BF0021704730B54FF4806487
:1013300004F1320410F0004548BF40424FF0000174
:101340003EE700BF42004FEAE2014FEA31014FEAB7
:1013500002701FBF12F07F4393F07F4F81F0605106
:10136000704792F0000F14BF93F07F4F704730B575
:101370004FF4607401F0004521F0004120E700BF08
:1013800050EA010208BF704730B54FF000050AE08F
:1013900050EA010208BF704730B511F0004502D590
:1013A000404261EB41014FF4806404F132045FEA92
:1013B000915C3FF4DCAE4FF003025FEADC0C18BF37
:1013C00003325FEADC0C18BF033202EBDC02C2F12D
:1013D000200300FA03FC20FA02F001FA03FE40EABF
:1013E0000E0021FA02F11444C1E600BF70B54FF0BF
:1013F000FF0C4CF4E06C1CEA11541DBF1CEA1355A1
:1014000094EA0C0F95EA0C0F00F0DEF82C4481EA08
:10141000030621EA4C5123EA4C5350EA013518BF28
:1014200052EA033541F4801143F4801338D0A0FB15
:1014300002CE4FF00005E1FB02E506F00042E0FBC2
:1014400003E54FF00006E1FB03569CF0000F18BFC8
:101450004EF0010EA4F1FF04B6F5007F64F5407470
:1014600004D25FEA4E0E6D4146EB060642EAC62103
:1014700041EA55514FEAC52040EA5E504FEACE2E70
:10148000B4F1FD0C88BFBCF5E06F1ED8BEF1004F73
:1014900008BF5FEA500E50F1000041EB045170BDEF
:1014A00006F0004646EA010140EA020081EA030133
:1014B000B4EB5C04C2BFD4EB0C0541EA045170BD2F
:1014C00041F480114FF0000E013C00F3AB8014F1A9
:1014D000360FDEBF002001F0004170BDC4F10004F2
:1014E000203C35DA0C341BDC04F11404C4F1200573
:1014F00000FA05F320FA04F001FA05F240EA0200CE
:1015000001F0004221F0004110EBD37021FA04F603
:1015100042EB06015EEA430E08BF20EAD37070BDBD
:10152000C4F10C04C4F1200500FA04F320FA05F01C
:1015300001FA04F240EA020001F0004110EBD3701E
:1015400041F100015EEA430E08BF20EAD37070BD8E
:10155000C4F1200500FA05F24EEA020E20FA04F367
:1015600001FA05F243EA020321FA04F001F0004116
:1015700021FA04F220EA020000EBD3705EEA430E87
:1015800008BF20EAD37070BD94F0000F0FD101F0B6
:101590000046400041EB010111F4801F08BF013CEF
:1015A000F7D041EA060195F0000F18BF704703F02D
:1015B0000046520043EB030313F4801F08BF013DB4
:1015C000F7D043EA0603704794EA0C0F0CEA135570
:1015D00018BF95EA0C0F0CD050EA410618BF52EA2A
:1015E0004306D1D181EA030101F000414FF0000030
:1015F00070BD50EA410606BF1046194652EA43063E
:1016000019D094EA0C0F02D150EA013613D195EAB1
:101610000C0F05D152EA03361CBF104619460AD1F9
:1016200081EA030101F0004141F0FE4141F4700103
:101630004FF0000070BD41F0FE4141F4780170BDF3
:1016400070B54FF0FF0C4CF4E06C1CEA11541DBF58
:101650001CEA135594EA0C0F95EA0C0F00F0A7F85A
:10166000A4EB050481EA030E52EA03354FEA013187
:1016700000F088804FEA03334FF0805545EA13139A
:1016800043EA12634FEA022245EA111545EA106562
:101690004FEA00260EF000419D4208BF964244F1F9
:1016A000FD0404F5407402D25B084FEA3202B61A18
:1016B00065EB03055B084FEA32024FF480104FF4EC
:1016C000002CB6EB020E75EB030E22BFB61A754660
:1016D00040EA0C005B084FEA3202B6EB020E75EBF3
:1016E000030E22BFB61A754640EA5C005B084FEA5B
:1016F0003202B6EB020E75EB030E22BFB61A754628
:1017000040EA9C005B084FEA3202B6EB020E75EB32
:10171000030E22BFB61A754640EADC0055EA060EF3
:1017200018D04FEA051545EA16754FEA06164FEA36
:10173000C30343EA52734FEAC2025FEA1C1CC0D1E2
:1017400011F4801F0BD141EA00014FF000004FF06F
:10175000004CB6E711F4801F04BF01430020B4F130
:10176000FD0C88BFBCF5E06F3FF6AFAEB5EB030CE8
:1017700004BFB6EB020C5FEA500C50F1000041EBE5
:10178000045170BD0EF0004E4EEA113114EB5C04B2
:10179000C2BFD4EB0C0541EA045170BD41F4801185
:1017A0004FF0000E013C90E645EA060E8DE60CEA8D
:1017B000135594EA0C0F08BF95EA0C0F3FF43BAFAA
:1017C00094EA0C0F0AD150EA01347FF434AF95EA61
:1017D0000C0F7FF425AF104619462CE795EA0C0F45
:1017E00006D152EA03353FF4FDAE1046194622E712
:1017F00050EA410618BF52EA43067FF4C5AE50EAEC
:1018000041047FF40DAF52EA43057FF4EBAE12E7DB
:101810004FEA4102B2F1E04324BFB3F5001CDCF112
:10182000FE5C0DD901F0004C4FEAC0024CEA50704A
:10183000B2F1004F40EB830008BF20F00100704779
:1018400011F0804F21D113F13872BCBF01F000407C
:10185000704741F480114FEA5252C2F11802C2F1AE
:10186000200C10FA0CF320FA02F018BF40F001002F
:101870004FEAC1234FEAD32303FA0CFC40EA0C00E1
:1018800023FA02F34FEA4303CCE77FEA625307D11E
:1018900050EA01331EBF4FF0FE4040F44000704755
:1018A00001F0004040F0FE4040F40000704700BFEF
:1018B00040420F0000201C0080841E000080250094
:1018C000999E36000040380000093D0000803E002F
:1018D00000004B00404B4C0000204E00808D5B0010
:1018E00000C05D000080700000127A0000007D00E2
:1018F00080969800001BB7000080BB00C0E8CE00B7
:10190000647ADA000024F4000000FA0080A81201D2
:10191000002D310100366E0140787D01400000004D
:10192000000000003E00080000000000A0000000D1
:101930000200000034540100000000002B7006007B
:101940000000000028000000000000002700010047
:101950000000000020000000000000005000000017
:10196000020000001AAC00000000000017940900FB
:1019700000000000169805000000000014000000A0
:10198000000000001380080000000000A00000001C
:101990000800000010000000000000002800000007
:1019A0000200000040000000040000006000000091
:1019B000000000005D000C0000000000500000006E
:1019C000000000004E0002000000000041AC0100D9
:1019D000000000003C000000000000003A80090008
:1019E000000000003000000000000000280000009F
:1019F0000000000027000100000000002360060036
:101A00000000000021600800000000001E0000002F
:101A1000000000001DC00400000000005000000095
:101A20000200000018000000000000001400000088
:101A30000000000060000000040000000024F4002A
:101A400030003000005A6202910091000087930339
:101A5000D200D20000B4C4041301130100E1F50563
:101A600054015401000E27079501950100D012136F
:101A700000389C1C00400040100000000080054021
:101A800010000000005000401100000000900540D0
:101A900011000000006000401200000000A005409E
:101AA00012000000007000401300000000B005406C
:101AB00013000000004002401400000000C0054078
:101AC00014000000005002402E00000000D005402D
:101AD0002E000000006002402F00000000E00540E2
:101AE0002F000000007002403000000000F00540B0
:101AF0003000000000D00340460000000000064017
:101B0000460000000010064047000000002006408C
:101B100048000000003006407F0000000040064002
:101B20008000000000500640840000000060064075
:101B30008C00000018000000004000401000000071
:101B4000008005401000000000500040110000001F
:101B500000900540110000000060004012000000ED
:101B600000A00540120000000070004013000000BB
:101B700000B00540130000000040024014000000C7
:101B800000C0054014000000005002402E0000007C
:101B900000D005402E000000006002402F00000031
:101BA00000E005402F0000000070024030000000FF
:101BB00000F005403000000000D00340430000006A
:101BC00000000640430000000010064044000000F2
:101BD000002006404500000000300640580000008C
:101BE0000040064059000000005006405C00000024
:101BF0000060064064000000180000000040004043
:101C0000008005400050004000900540006000400A
:101C100000A005400070004000B0054000400240B8
:101C200000C005400050024000D005400060024066
:101C300000E005400070024000F0054000D0034085
:101C4000000006400010064000100640002006403C
:101C500000200640003006400030064000400640AC
:101C6000004006400050064000500640006006401C
:101C7000006006400070064000700640008006408C
:0C1C8000008006400090064000900640E6
:00000001FF
